:10000000F9C0000015C1000013C1000011C10000BB
:100010000FC100000DC100000BC1000009C10000AC
:1000200007C1000005C1000003C1000001C10000BC
:10003000FFC00000FDC00000FBC00000F9C00000D0
:10004000F7C00000F5C00000F3C00000F1C00000E0
:10005000EFC00000EDC00000EBC0000009C30000CD
:10006000E7C0000006C60000E6C50000E1C00000D1
:10007000DFC00000DDC00000DBC00000D9C0000010
:10008000D7C00000D5C00000D3C00000D1C0000020
:1000900029C6000009C60000CBC00000C9C000008E
:1000A000C7C00000C5C00000C3C00000C1C0000040
:1000B000BFC00000BDC00000BBC00000B9C0000050
:1000C000B7C00000B5C00000B3C0000044C60000C7
:1000D00024C60000ADC0000077C6000057C600006F
:1000E000A7C00000F8010202090223022A023E0210
:1000F00045026E616E00696E660000407A10F35A28
:1001000000A0724E18090010A5D4E80000E8764857
:10011000170000E40B54020000CA9A3B000000E103
:10012000F505000080969800000040420F00000096
:10013000A08601000000102700000000E803000076
:1001400000006400000000000A0000000000010040
:10015000000000002C76D888DC674F0823DFC1DF61
:10016000AE59E1B1B796E5E3E453C63AE651997664
:1001700096E8E6C28426EB898C9B62ED407C6FFC9E
:10018000EFBC9C9F40F2BAA56FA5F490055A2AF7E0
:100190005C936B6CF9676DC11BFCE0E40D47FEF5E9
:1001A00020E6B500D0ED902E030094357705008051
:1001B000841E080000204E0A000000C80C333333B0
:1001C000330F986E12831141EF8D2114893BE65550
:1001D00016CFFEE6DB18D1844B381BF77C1D901D33
:1001E000A4BBE424203284725E228100C9F124EC95
:1001F000A1E53D2711241FBECFEFD1E2DEBFCDBF69
:1002000012E0A0E0B2E0EEE0FCE100E00BBF02C0D3
:1002100007900D92A633B107D9F723E0A6E3B2E029
:1002200001C01D92A735B207E1F749D20C94050E23
:10023000E7CE80913702882349F0809137028F3FC3
:1002400029F0809137028F5F80933702089580EA0A
:100250008093360284E98093BC0008958091360231
:10026000882309F488C0282F30E0A9014D7F413050
:10027000510571F4ECEBF0E010828091360284605D
:100280008093360281E08093370284EA8083089568
:1002900082FF1CC09091BC009923C4F49091B900D6
:1002A000987F983021F0903111F0D1CF08958B7F55
:1002B000806480933602809145028093BB0081E088
:1002C0008093370284E88093BC00089586FF1FC0A6
:1002D0009091BC009923DCF49091B900987F9831FB
:1002E00021F0903411F0B3CF0895982F9F7B986040
:1002F0009093360291E09093370281FD04C0809183
:1003000046028093BB0084E88093BC00089583FF7D
:1003100018C09091BC009923A4F4982F977F9093D4
:10032000360281FF04C08091BB0080934602906238
:100330009093360281E08093370284E98093BC0079
:10034000089585FF10C09091BC0094FD0CC01092E0
:100350003702882324F080E18093360208958F7D50
:100360008093360208952F76232B29F0809137024F
:100370008F3108F06CCF08958770880F8069809363
:10038000450281E08093360208958770880F816965
:100390008093450283E08093360208951092B9005D
:1003A0008CE08093B800089559DFE0910002E130BD
:1003B00071F48EEE8093460280913E02DDDF82E092
:1003C0008093000280913602807991F408958091A3
:1003D0003602807909F49FC08E2F90E0FC0132979D
:1003E000E730F10508F097C0EE58FF4F0C94220C4F
:1003F0008AEA8093460280913E02BEDF83E08093CA
:100400000002089580913E02C0DF84E080930002E4
:10041000089580914602882334F090E090933D0245
:1004200080933C0206C090E09F6F90933D028093C2
:100430003C0288EA8093460280913E029DDF85E07F
:1004400080930002089580913E029FDF86E08093B2
:1004500000020895E5E4F2E0818124E6829FC00174
:10046000112490933B0280933A0289EA8183809120
:100470003E0282DF87E080930002089580913E0271
:1004800084DF88E08093000208956091460270E066
:100490007093390260933802E0913E02F0E0EE0F73
:1004A000FF1F8091430290914402E80FF91F24E658
:1004B000269FC001279F900D112440913A02509130
:1004C0003B02841B950B0E940F0C40913C02509103
:1004D0003D02249FC001259F900D11244997860F4E
:1004E000971F6AE070E00E940F0C71836083109286
:1004F000360281E08093000280913E028F3F19F422
:1005000010923E02089510923E0281E090E0909396
:10051000400280933F02089580FF02C0289A01C0E4
:10052000289881FF02C0299A01C0299882FF02C041
:100530002A9A01C02A9883FF02C02B9A08952B980B
:10054000089583B18170199982601A9984601B990A
:1005500088600895CF93DF9320982198229823985C
:100560002D9A2C9AEEDF90E1899FE00111242C98BE
:100570002C9AE7DF2C988C2BDF91CF9108952E9841
:10058000E9CF0895CF93C82F209A219A229A239ACF
:100590002D982C9A82958F70BFDF2C982C9A8C2FD7
:1005A000BBDF2C98ECDF8823ECF3CF9108952E98D5
:1005B000E9CF08952E9AE6CF0895CF93DF93EC010B
:1005C0008881882329F02196F5DF89918111FCCF5C
:1005D000DF91CF91089590E4699F800D1124806888
:1005E000E6CF089581E0E3DF83EF91E00197F1F733
:1005F00000C000000895CF93209A219A229A239A4E
:10060000249A269A259A85EA9EE00197F1F700C080
:1006100000002E982C982D98C3E02C9A83E07CDF64
:100620002C9881EE94E00197F1F700C00000C150D2
:10063000A1F72C9A82E070DF2C9889EF90E0019767
:10064000F1F700C0000088E2B2DF88E0B0DF81E0AF
:10065000AEDF86E0ACDF8CE0AADFCF91089585B5F0
:10066000826085BDEEE6F0E0808181608083089540
:100670001F920F920FB60F9211240BB60F922F9369
:100680003F934F935F936F937F938F939F93AF931A
:10069000BF93EF93FF93CDDDFF91EF91BF91AF91AA
:1006A0009F918F917F916F915F914F913F912F918A
:1006B0000F900BBE0F900FBE0F901F901895CF9309
:1006C000DF93CDB7DEB7CD56D1090FB6F894DEBFB4
:1006D0000FBECDBF8FEF8093010180BB4CE050E097
:1006E00064E270E0CE0101960E94F50D40E250E018
:1006F00064E070E0CE010D960E94F50D44E050E0FC
:1007000060E070E0CE018D960E94F50D74DF87E603
:10071000809334011092350188E9809331017894F7
:100720009EDF81E492E0909344028093430236DEA0
:1007300081E092E042DF61E080E04DDF8FE092E017
:100740003CDF0F2EF2EACF2EFCEFDF2EF02D0F2E26
:10075000F2EAAF2EFCEFBF2EF02D2E012AE5420E5D
:10076000511C3E018AE4680E711C6894222421F811
:10077000332433949FEFE0E7F2E09150E040F04003
:10078000E1F700C0000010DE80914102909142022A
:10079000C816D90624F4C0904102D09042020091BC
:1007A00041021091420280914102909142022091B7
:1007B000410230914202A216B30609F4D7C16AE0A1
:1007C00070E00E940F0CBC01990F880B990BEAD3C3
:1007D00020E030E040E251E47BD34B015C01C801F2
:1007E0006AE070E00E940F0C072E000C880B990B3A
:1007F000D9D39B01AC01C501B40102D3862E972E3B
:10080000082F192FA0904102B0904202EBDE1F93F7
:100810000F939F928F9288E192E09F938F935F92C4
:100820004F920E94690DC6016AE070E0F8D77B0123
:10083000BC01990F880B990BB5D320E030E040E262
:1008400051E446D3AE966CAF7DAF8EAF9FAFAE97FF
:10085000B701FF0C880B990BA5D39B01AC01AE9699
:100860006CAD7DAD8EAD9FADAE97CAD29F938F9389
:100870007F936F9386E292E09F938F937F926F9224
:100880000E94690DC20199DE61E080E0A4DEC3012F
:1008900094DE0FB6F894DEBF0FBECDBF29813A813A
:1008A0004B815C81682D792D802F912F2BD488234B
:1008B00024F0F1018081806280832D813E814F810F
:1008C0005885682D792D802F912F1CD4882324F0F2
:1008D000F10180818068808329853A854B855C851C
:1008E000682D792D802F912F0DD4882324F0F101CC
:1008F0008081806480832DA53EA54FA558A969817C
:100900007A818B819C817BD29B01AC01682D792DF2
:10091000802F912FD9D2181624F0F10180818F7D7C
:1009200080832DA53EA54FA558A96D817E818F811D
:10093000988565D29B01AC01682D792D802F912F70
:10094000C3D2181624F0F10180818F7780832DA502
:100950003EA54FA558A969857A858B859C854FD280
:100960009B01AC01682D792D802F912FADD21816E7
:1009700024F0F10180818F7B80832D853E854F851A
:100980005889682D792D802F912FBCD388230CF0A6
:10099000889A29893A894B895C89682D792D802F1D
:1009A000912FB0D388230CF0899A2D893E894F89E5
:1009B000588D682D792D802F912FA4D388230CF08A
:1009C0008A9A298D3A8D4B8D5C8D682D792D802FDB
:1009D000912F98D388230CF08B9A2D8D3E8D4F8DBF
:1009E00058A1682D792D802F912F8CD388230CF05E
:1009F0008C9A29A13AA14BA15CA1682D792D802F59
:100A0000912F80D388230CF08D9A2DA13EA14FA168
:100A100058A5682D792D802F912F74D388230CF041
:100A20008E9A29A53AA54BA55CA5682D792D802F16
:100A3000912F68D388230CF08F9A2DA53EA54FA542
:100A400058A96D857E858F859889D9D19B01AC0188
:100A5000682D792D802F912F37D218160CF0889899
:100A60002DA53EA54FA558A969897A898B899C89AE
:100A7000C6D19B01AC01682D792D802F912F24D2F6
:100A800018160CF089982DA53EA54FA558A96D897B
:100A90007E898F89988DB3D19B01AC01682D792D0A
:100AA000802F912F11D218160CF08A982DA53EA5F3
:100AB0004FA558A9698D7A8D8B8D9C8DA0D19B01F6
:100AC000AC01682D792D802F912FFED118160CF0D6
:100AD0008B982DA53EA54FA558A96D8D7E8D8F8D28
:100AE00098A18DD19B01AC01682D792D802F912F7C
:100AF000EBD118160CF08C982DA53EA54FA558A942
:100B000069A17AA18BA19CA17AD19B01AC01682D2E
:100B1000792D802F912FD8D118160CF08D982DA5F6
:100B20003EA54FA558A96DA17EA18FA198A567D11B
:100B30009B01AC01682D792D802F912FC5D11816FE
:100B40000CF08E982DA53EA54FA558A969A57AA5AC
:100B50008BA59CA554D19B01AC01682D792D802FCC
:100B6000912FB2D118161CF08F9801C059018091B5
:100B700069029091AE02891B8F7109F4FBCD69E186
:100B8000CE01C1963ED0CE01C19619D0F3CD909141
:100B90008D029F5F9F712091AF029217E1F3E92FC1
:100BA000F0E0E75BFD4F80832FB7F89490938D02C0
:100BB000E1E3F1E08081806280832FBF0895CF93CD
:100BC000DF93EC012196FC018081882321F0DFDF97
:100BD00089918111FCCFDF91CF9108958091AE0270
:100BE00090916902891759F08F5F982F9F71E92FB3
:100BF000F0E0EB50FD4F80819093AE02089580E0CD
:100C000008950F931F93CF93DF93EC0161508C01F4
:100C1000060F111D04C0E2DF8993882321F0C0175D
:100C2000D107C9F701C08E01F8011082DF91CF9181
:100C30001F910F9108950F930FB7EF93FF93E091DA
:100C40008B02F091B002E395EF71EF1305C0F091C4
:100C5000C100FF7DF093C100E0938B02F0E0EA5CFD
:100C6000FC4FE081E093C600FF91EF910FBF0F9121
:100C700018950F930FB79F939091C600EF93FF9332
:100C8000E091D102F0918C02E395EF71FE1731F003
:100C9000E093D102F0E0E659FD4F9083FF91EF9190
:100CA0009F910FBF0F9118950F930FB7EF93FF937D
:100CB000E091D202F0911503E395EF71EF1305C0B7
:100CC000F091C900FF7DF093C900E093D202F0E0FB
:100CD000E257FD4FE081E093CE00FF91EF910FBF0F
:100CE0000F9118950F930FB79F939091CE00EF93AC
:100CF000FF93E091F302F0918A02E395EF71FE1702
:100D000031F0E093F302F0E0EF54FD4F9083FF9158
:100D1000EF919F910FBF0F9118950F930FB7EF931E
:100D2000FF93E0914702F0915603E395EF71EF13C3
:100D300005C0F091D100FF7DF093D100E093470210
:100D4000F0E0ED52FD4FE081E093D600FF91EF918E
:100D50000FBF0F9118950F930FB79F939091D600E7
:100D6000EF93FF93E0914802F091F402E395EF7165
:100D7000FE1731F0E0934802F0E0EA5EFC4F90830A
:100D8000FF91EF919F910FBF0F9118950F930FB7A0
:100D9000EF93FF93E091AF02F0918D02E395EF7135
:100DA000EF1305C0F0913101FF7DF0933101E09325
:100DB000AF02F0E0E75BFD4FE081E0933601FF9189
:100DC000EF910FBF0F9118950F930FB79F939091CD
:100DD0003601EF93FF93E0916902F091AE02E39543
:100DE000EF71FE1731F0E0936902F0E0EB50FD4F38
:100DF0009083FF91EF919F910FBF0F9118955058DD
:100E0000BB27AA270ED044C135D130F03AD120F00B
:100E100031F49F3F11F41EF42AC10EF4E095E7FB74
:100E200020C1E92F46D180F3BA1762077307840700
:100E3000950718F071F49EF55EC10EF4E0950B2E47
:100E4000BA2FA02D0B01B90190010C01CA01A0011C
:100E50001124FF27591B99F0593F50F4503E68F177
:100E60001A16F040A22F232F342F4427585FF3CFB8
:100E7000469537952795A795F0405395C9F77EF489
:100E80001F16BA0B620B730B840BBAF09150A1F0D2
:100E9000FF0FBB1F661F771F881FC2F70EC0BA0F58
:100EA000621F731F841F48F4879577956795B795E0
:100EB000F7959E3F08F0B3CF9395880F08F09927D8
:100EC000EE0F979587950895A8D008F481E00895CE
:100ED0000CD0DEC0D6D040F0CDD030F021F45F3F52
:100EE00019F0BFC0511108C1C2C0E3D098F39923D3
:100EF000C9F35523B1F3951B550BBB27AA276217DE
:100F00007307840738F09F5F5F4F220F331F441F22
:100F1000AA1FA9F333D00E2E3AF0E0E830D091505A
:100F20005040E695001CCAF729D0FE2F27D0660F47
:100F3000771F881FBB1F261737074807AB07B0E886
:100F400009F0BB0B802DBF01FF2793585F4F2AF09C
:100F50009E3F510568F085C0CFC05F3FECF3983EDF
:100F6000DCF3869577956795B795F7959F5FC9F7F9
:100F7000880F911D9695879597F90895E1E0660F82
:100F8000771F881FBB1F621773078407BA0720F0FB
:100F9000621B730B840BBA0BEE1F88F7E095089564
:100FA000E89409C097FB3EF4909580957095619503
:100FB0007F4F8F4F9F4F9923A9F0F92F96E9BB27B9
:100FC0009395F695879577956795B795F111F8CF35
:100FD000FAF4BB0F11F460FF1BC06F5F7F4F8F4FA0
:100FE0009F4F16C0882311F096E911C0772321F096
:100FF0009EE8872F762F05C0662371F096E8862F2E
:1010000070E060E02AF09A95660F771F881FDAF784
:10101000880F9695879597F90895990F0008550FB1
:10102000AA0BE0E8FEEF16161706E807F907C0F06E
:1010300012161306E407F50798F0621B730B840B76
:10104000950B39F40A2661F0232B242B252B21F450
:1010500008950A2609F4A140A6958FEF811D811DF0
:10106000089597F99F6780E870E060E008959FEF2A
:1010700080EC089500240A9416161706180609062F
:10108000089500240A9412161306140605060895FE
:10109000092E0394000C11F4882352F0BB0F40F486
:1010A000BF2B11F460FF04C06F5F7F4F8F4F9F4FC6
:1010B000089557FD9058440F551F59F05F3F71F048
:1010C0004795880F97FB991F61F09F3F79F08795AF
:1010D0000895121613061406551FF2CF4695F1DF38
:1010E00008C0161617061806991FF1CF86957105C8
:1010F000610508940895E894BB2766277727CB01FC
:1011000097F908958ADF08F48FEF08952F923F92A0
:101110004F925F926F927F928F929F92AF92BF9207
:10112000CF92DF92EF92FF920F931F93CF93DF93B3
:10113000CDB7DEB760970FB6F894DEBF0FBECDBF58
:101140007C011B016A01FC0117821682838181FFE9
:101150002AC39E012F5F3F4F3901F7019381F101AF
:1011600093FD859193FF81911F01882309F417C393
:10117000853239F493FD859193FF81911F0185326A
:1011800031F4B70190E069D456016501E6CF10E073
:10119000512C912CFFE1F915D8F08B3279F038F40D
:1011A000803279F08332A1F4F92DF0612EC08D32B6
:1011B00061F0803369F4292D21602DC0392D326012
:1011C000932E892D8460982E2AC0E92DE86015C0E1
:1011D00097FC2DC020ED280F2A3088F496FE06C01B
:1011E0003AE0139F200D1124122F19C08AE0589E57
:1011F000200D1124522EE92DE0629E2E10C08E3259
:1012000031F496FCCCC2F92DF0649F2E08C08C36C8
:1012100021F4292D2068922E02C0883641F4F10174
:1012200093FD859193FF81911F018111B3CF9BEBBA
:10123000980F933020F4992D9061805E07C09BE950
:10124000980F933008F059C1992D9F7E96FF16E0B4
:101250009F73992E853619F49064992E08C08636AE
:1012600021F4392F3068932E02C01111115097FECE
:1012700007C01C3350F444244394410E27E00BC0B4
:10128000183038F027E017E005C027E09CE3492E2E
:1012900002C0212F412C560184E0A80EB11CF6019A
:1012A0006081718182819381042DA301E8D26C0158
:1012B000F981FC87F0FF02C0F3FF06C091FC06C075
:1012C00092FE06C000E205C00DE203C00BE201C0C1
:1012D00000E08C858C7019F0011143C280C297FE2A
:1012E00010C04C0CFC85F4FF04C08A81813309F4E2
:1012F0004A94141474F528E0241578F588E0482EF3
:101300002CC096FC2AC0812F90E08C159D059CF086
:101310003CEFC3163FEFD30674F0892D8068982EFA
:101320000AC0E2E0F0E0EC0FFD1FE10FF11D80814B
:10133000803319F411501111F4CF97FE0EC04424DC
:101340004394410E812F90E0C816D9062CF41C1945
:1013500004C04424439401C010E097FE06C01C144E
:101360001D0434F4C601019605C085E090E002C07A
:1013700081E090E001110196112331F0212F30E03E
:101380002F5F3F4F820F931F252D30E08217930769
:1013900014F4581A01C0512C892D897041F455203C
:1013A00031F0B70180E290E058D35A94F8CF00238F
:1013B00021F0B701802F90E050D393FC08C0552056
:1013C00031F0B70180E390E048D35A94F8CF97FE0C
:1013D0004AC04601D7FE02C0812C912CC601881953
:1013E0009909F301E80FF91FFE87ED87960124198B
:1013F0003109388B2F87012F10E0119501951109C4
:101400003FEF8316930621F4B7018EE290E025D3D7
:10141000C814D9044CF08F8598898815990524F44F
:10142000ED85FE85818101C080E3F1E08F1A91088E
:101430002D853E852F5F3F4F3E872D878016910675
:1014400024F0B70190E009D3DBCFC814D90441F4EC
:101450009A81963320F4953319F43C8534FF81E367
:10146000B70190E048C08A81813319F09C859F7E46
:101470009C87B70190E0F1D2111105C094FC16C011
:1014800085E690E015C0B7018EE290E0E6D21E5FDF
:1014900082E001E0080FF301E80FF11D8081B70140
:1014A00090E0DBD2802F0113F4CFE8CF85E490E009
:1014B000B701D3D2D7FC06C0C114D10441F4EC85E6
:1014C000E4FF05C0D194C194D1088DE201C08BE244
:1014D000B70190E0C2D280E32AE0C216D1042CF01A
:1014E0008F5FFAE0CF1AD108F7CFB70190E0B5D2FD
:1014F000B701C601C096B1D249C1833631F08337F6
:1015000079F0833509F052C01FC0560132E0A30EB6
:10151000B11CF6018081898301E010E0630111C0F4
:101520005601F2E0AF0EB11CF601C080D18096FEEC
:1015300003C0612F70E002C06FEF7FEFC60182D25F
:101540008C01F92DFF7713C0560122E0A20EB11CC9
:10155000F601C080D18096FE03C0612F70E002C00A
:101560006FEF7FEFC60163D28C01F92DF0689F2EDB
:10157000F3FD18C0852D90E00817190798F4B701FE
:1015800080E290E06AD25A94F5CFF60197FC8591FB
:1015900097FE81916F01B70190E05FD251105A948C
:1015A000015011090115110581F7F0C0843611F0C1
:1015B000893659F5560197FE09C024E0A20EB11CE8
:1015C000F60160817181828193810AC0F2E0AF0EE1
:1015D000B11CF60160817181072E000C880B990BFC
:1015E000F92DFF769F2E97FF09C0909580957095F5
:1015F00061957F4F8F4F9F4FF0689F2E2AE030E01C
:10160000A30195D2C82EC6183EC0092D853721F4F6
:101610000F7E2AE030E01DC0097F8F3691F018F46C
:10162000883559F0BCC0803719F0883711F0B7C041
:10163000006104FF09C0046007C094FE08C0066092
:1016400006C028E030E005C020E130E002C020E123
:1016500032E0560107FF09C084E0A80EB11CF60174
:10166000608171818281938108C0F2E0AF0EB11C6C
:10167000F6016081718180E090E0A30158D2C82E0C
:10168000C6180F77902E96FE0BC0092D0E7FC1163F
:1016900050F494FE0AC092FC08C0092D0E7E05C0CD
:1016A000DC2C092D03C0DC2C01C0D12E04FF0DC0A1
:1016B000FE01EC0DF11D8081803311F4097E09C01B
:1016C00002FF06C0D394D39404C0802F867809F01B
:1016D000D39403FD10C000FF06C01C2DD51478F470
:1016E000150D1D190CC0D51450F4B70180E290E01F
:1016F000B4D1D394F8CFD51410F45D1801C0512C97
:1017000004FF0FC0B70180E390E0A7D102FF16C02D
:1017100001FD03C088E790E002C088E590E0B701D2
:101720000CC0802F867851F001FF02C08BE201C00F
:1017300080E207FD8DE2B70190E08FD1C11630F451
:10174000B70180E390E089D11150F8CFCA94F3013A
:10175000EC0DF11D8081B70190E07FD1C110F6CF73
:1017600015C0F4E0F51550F584E0581A93FE1EC03C
:10177000011125C02C8523FF27C002EF10E0392D71
:101780003071932EF8018491811121C0552009F404
:10179000FCCCB70180E290E060D15A94F7CFF7011A
:1017A0008681978123C08FEF9FEF20C0B70180E231
:1017B00090E053D15A945110F9CFDACF512CB701A0
:1017C000802F90E04AD1D6CF06EF10E0D8CF91100D
:1017D0008052B70190E041D10F5F1F4FD3CF23E07C
:1017E000251510F483E0C1CF512CC4CF60960FB6FD
:1017F000F894DEBF0FBECDBFDF91CF911F910F9147
:10180000FF90EF90DF90CF90BF90AF909F908F9020
:101810007F906F905F904F903F902F90089597FB2F
:10182000072E16F4009406D077FD08D014D007FCDC
:1018300005D03EF4909581959F4F089570956195E0
:101840007F4F0895EE0FFF1F0024001C0BBE079072
:10185000F691E02D0994AA1BBB1B51E107C0AA1FFA
:10186000BB1FA617B70710F0A61BB70B881F991F41
:101870005A95A9F780959095BC01CD01089528301F
:1018800008F027E03327DA01990F311D87FD9160B9
:1018900000966105710539F432602E5F3D9330E3A7
:1018A0002A95E1F708959F3F30F080387105610572
:1018B00009F03C5F3C5F3D93913008F08068911DDA
:1018C000DF93CF931F930F93FF92EF92192F987F7F
:1018D0009695E92F96959695E90FFF27EC5AFE4FBE
:1018E00099273327EE24FF24A701E70105900894E8
:1018F000079428F4360FE71EF81E491F511D660F86
:10190000771F881F991F0694A1F70590079428F464
:10191000E70EF81E491F561FC11D770F881F991F1C
:10192000661F0694A1F70590079428F4F80E491F46
:10193000561FC71FD11D880F991F661F771F06945A
:10194000A1F70590079420F4490F561FC71FD81F11
:10195000990F661F771F881F0694A9F78491109529
:10196000177041F0D695C79557954795F794E7942A
:101970001A95C1F7EAEFF0E068941590159135914A
:101980006591959105907FE27395E118F10A430BFB
:10199000560BC90BD009C0F7E10CF11E431F561FAF
:1019A000C91FD01D7EF4703311F48A95E6CFE894F8
:1019B000015030F0080F0AF40027021708F4202F16
:1019C0002395022F7A3328F079E37D932A95E9F75E
:1019D00010C07D932A9589F606949795679537955B
:1019E00017951794E118F10A430B560BC90BD00950
:1019F00098F023957E9173957A3308F070E37C9389
:101A00002013B8F77E9170617D9330F0839571E378
:101A10007D9370E32A95E1F71124EF90FF900F91E9
:101A20001F91CF91DF91992787FD90950895FC0133
:101A30000590615070400110D8F7809590958E0FF9
:101A40009F1F0895FC016150704001900110D8F76C
:101A5000809590958E0F9F1F08950F931F93CF939E
:101A6000DF93FB01238121FD03C08FEF9FEF2CC08B
:101A700022FF16C0468157812481358142175307C2
:101A800044F4A081B1819D012F5F3F4F31832083BA
:101A90008C93268137812F5F3F4F3783268314C075
:101AA0008B01EC01FB010084F185E02D0995892B68
:101AB000E1F6D80116968D919C911797019617968D
:101AC0009C938E931697CE01DF91CF911F910F912A
:101AD00008950F931F93CF93DF93CDB7DEB72E9763
:101AE0000FB6F894DEBF0FBECDBF0D891E8986E00C
:101AF0008C831A8309838FEF9FE79E838D83AE01CA
:101B0000475E5F4F6F89788DCE010196FFDAEF81D6
:101B1000F885E00FF11F10822E960FB6F894DEBF05
:101B20000FBECDBFDF91CF911F910F910895FA01A4
:101B3000AA27283051F1203181F1E8946F936E7F0C
:101B40006E5F7F4F8F4F9F4FAF4FB1E03ED0B4E0FD
:101B50003CD0670F781F891F9A1FA11D680F791F3E
:101B60008A1F911DA11D6A0F711D811D911DA11D4F
:101B700020D009F468943F912AE0269F112430195F
:101B8000305D3193DEF6CF010895462F4770405DFA
:101B90004193B3E00FD0C9F7F6CF462F4F70405DA9
:101BA0004A3318F0495D31FD4052419302D0A9F704
:101BB000EACFB4E0A6959795879577956795BA95FE
:101BC000C9F700976105710508959B01AC010A2EC4
:101BD00006945795479537952795BA95C9F7620F9B
:101BE000731F841F951FA01D0895DC01CB01FC010C
:101BF000F999FECF06C0F2BDE1BDF89A319600B466
:0E1C00000D9241505040B8F70895F894FFCF70
:101C0E0001496E69636A616C697A61636A61005049
:101C1E00726F6772616D7500416B2E20742E2025D8
:101C2E002E31662043004D61782E20742E20252EF5
:061C3E00316620430000A6
:00000001FF
